{
  "_format": "hh-sol-artifact-1",
  "contractName": "ManualToken",
  "sourceName": "contracts/ManualToken.sol",
  "abi": [
    {
      "inputs": [
        {
          "internalType": "address",
          "name": "",
          "type": "address"
        }
      ],
      "name": "balanceOf",
      "outputs": [
        {
          "internalType": "uint256",
          "name": "",
          "type": "uint256"
        }
      ],
      "stateMutability": "view",
      "type": "function"
    },
    {
      "inputs": [
        {
          "internalType": "address",
          "name": "from",
          "type": "address"
        },
        {
          "internalType": "address",
          "name": "to",
          "type": "address"
        },
        {
          "internalType": "uint256",
          "name": "amount",
          "type": "uint256"
        }
      ],
      "name": "transfer",
      "outputs": [],
      "stateMutability": "nonpayable",
      "type": "function"
    }
  ],
  "bytecode": "0x608060405234801561001057600080fd5b5061021d806100206000396000f3fe608060405234801561001057600080fd5b50600436106100365760003560e01c806370a082311461003b578063beabacc81461006b575b600080fd5b61005560048036038101906100509190610107565b610087565b604051610062919061014d565b60405180910390f35b61008560048036038101906100809190610194565b61009f565b005b60006020528060005260406000206000915090505481565b505050565b600080fd5b600073ffffffffffffffffffffffffffffffffffffffff82169050919050565b60006100d4826100a9565b9050919050565b6100e4816100c9565b81146100ef57600080fd5b50565b600081359050610101816100db565b92915050565b60006020828403121561011d5761011c6100a4565b5b600061012b848285016100f2565b91505092915050565b6000819050919050565b61014781610134565b82525050565b6000602082019050610162600083018461013e565b92915050565b61017181610134565b811461017c57600080fd5b50565b60008135905061018e81610168565b92915050565b6000806000606084860312156101ad576101ac6100a4565b5b60006101bb868287016100f2565b93505060206101cc868287016100f2565b92505060406101dd8682870161017f565b915050925092509256fea26469706673582212201e0021a370deea3255c97b376108e6d067902da866328cb891f889e28edb89ab64736f6c63430008180033",
  "linkReferences": {},
  "deployedLinkReferences": {}
}